:020000040800F2
:10000000700900208D0300089D2A00089728000829
:1000100011290008891C0008693800080000000048
:10002000000000000000000000000000D5020008F1
:100030009725000800000000290300085D32000831
:10004000A7030008A7030008A7030008A7030008E8
:10005000A7030008A7030008A7030008A7030008D8
:10006000A7030008A7030008A7030008A7030008C8
:10007000A7030008A7030008A7030008A7030008B8
:10008000A7030008A7030008A7030008251F00080E
:10009000ED1E0008A7030008A7030008A703000837
:1000A000A7030008A7030008A7030008A703000888
:1000B0004133000861330008A7030008A7030008C4
:1000C000A7030008A7030008A7030008A703000868
:1000D000A7030008A5330008753400082D35000873
:1000E000A7030008A7030008A7030008A703000848
:1000F000A7030008A7030008A7030008A703000838
:10010000A7030008A7030008A7030008A703000827
:10011000A7030008A7030008A7030008A703000817
:10012000A7030008A7030008A7030008A703000807
:10013000A7030008A7030008A7030008A7030008F7
:10014000A7030008A7030008A7030008A7030008E7
:10015000A7030008A7030008A70300084935000803
:10016000A7030008A7030008A7030008A7030008C7
:10017000A7030008A7030008A7030008A7030008B7
:10018000A7030008A703000800F002F800F092F8A7
:100190000AA090E8000C82448344AAF10107DA45E2
:1001A00001D100F087F8AFF2090EBAE80F0013F0A2
:1001B000010F18BFFB1A43F001031847C43F0000AA
:1001C000E43F0000103A24BF78C878C1FAD852073B
:1001D00024BF30C830C144BF04680C6070470000C1
:1001E0000023002400250026103A28BF78C1FBD840
:1001F000520728BF30C148BF0B6070476E2900F01E
:100200003483702900F08581662903F036876529DB
:1002100003F03387672903F03087612903F02F87C4
:1002200003681B0A28BF41F08001692900F0F680AD
:10023000642900F0F380752900F0F0806F2900F048
:100240001186782900F05181E92900F0AB85E42975
:1002500000F0A885F52900F0A585EF2900F00E86AD
:10026000F82900F050810368DB0928BF41F08001C4
:10027000632901F01F80732901F02480E32901F034
:100280002F80F32901F03480002070471FB503F060
:10029000EFFE00F0FDFD04000020002103F0D2FE7F
:1002A000401C60600020002103F0B6FEE0601FBD2E
:1002B00010B510BD01F0B2F81146FFF7E7FF03F0EB
:1002C000B5FB01F0D9F803B4FFF7F2FF03BC01F06E
:1002D00019F900002A4B19680868B0E8F04F80F35C
:1002E0000988BFF36F8F4FF0000080F311887047CB
:1002F0000000000006480068006880F3088862B6C5
:1003000061B6BFF34F8FBFF36F8F00DF00BF00BF39
:1003100008ED00E0DFF80C00016841F470010160B5
:10032000704700BF88ED00E0EFF30980BFF36F8FE7
:10033000134B1A681EF0100F08BF20ED108A20E939
:10034000F04F106008B44FF0500080F31188BFF3F5
:100350004F8FBFF36F8F03F0C9FC4FF0000080F3A5
:10036000118808BC19680868B0E8F04F1EF0100F3B
:1003700008BFB0EC108A80F30988BFF36F8F704715
:1003800020000020EFF305807047000009488047F7
:1003900009480047FEE7FEE7FEE7FEE7FEE7FEE767
:1003A000FEE7FEE7FEE7FEE704480549054A064B7F
:1003B000704700006D3200088901000870030020BA
:1003C0007009002070050020700500201CB50C4647
:1003D000064B7B4469460090204600F06CFC0446C6
:1003E0000020694600F07AFC20461CBD0709000089
:1003F0000FB41CB5084B06AA7B44694600900598CB
:1004000000F059FC04460020694600F067FC2046D5
:100410001CBC5DF814FB0000E10800002DE9F04170
:100420000646002410687529314616A510D000F044
:1004300088F9002802DA404213A507E031688A07EC
:1004400001D512A502E0490704D511A5012401E058
:1004500000F080F900210A2206F1240709E0B0FB30
:10046000F2FCB0FBF2F302FB1C003030785418466B
:10047000491C0028F3D123462A463046BDE8F04106
:1004800000F09AB9000000002D0000002B000000D1
:1004900020000000F0B40D460188090502D5214C6A
:1004A0007C4402E01F4C7C440E34002100F1240601
:1004B00008E002F00F071209E75D42EA03721B0928
:1004C0007754491C52EA0307F3D10278002312073C
:1004D00004D5702D06D009B1022311342246F0BC98
:1004E00000F06AB901231034F8E770B504460D46F0
:1004F0002146106800F02EF9024629462046BDE844
:1005000070400023C6E7D21D22F00703D3E9002381
:10051000C0E70368126843F0200303600823C36147
:100520000023B7E7DE3B00002DE9F05F8946044673
:100530004FF0000ADFF874B1FB44C0F820A0204659
:10054000E1688847002874D0252806D0D4E9012125
:100550009047206A401C2062F1E700265F46204653
:10056000E16888472028054607DB312D05D2781938
:1005700010F8200C08B10643F1E7B00701D526F0CA
:100580000406C4F81CA00027C4F818A02A2D09D01E
:10059000284603F083F938B304EB8708303DC8F8E8
:1005A000185019E059F8041B204604EB87029161AA
:1005B000E1688847012F054618D1E069002820DA54
:1005C00026F020061DE0D8F8180000EB800005EBAF
:1005D00040003038C8F818002046E16888470546D2
:1005E00003F05CF90028EED1012F0AD02E2D08D19E
:1005F0002046E16888477F1C0546022F46F020060A
:10060000C4DBA069002803DA404246F00106A0617D
:10061000F00701D026F010066C2D0BD0682D09D004
:100620004C2D39D06A2D35D0742D35D07A2D33D05C
:1006300016E038E0E1682F4620468847B842054674
:1006400009D16C2F26D04FF48060E1680643204624
:100650008847054604E06C2F1AD04FF4807006439B
:100660000DB3A5F14100192802D8203546F40066E3
:100670004A462946204626604E46FFF7BFFD80B118
:1006800001280BD0F61D26F0070000F1080956E7F7
:100690004020E4E78020D8E70020D6E706F10409EF
:1006A0004DE7284652E7206ABDE8F09F6E3B000008
:1006B00010B5431C02E010F8011B71B18107FAD19B
:1006C0004FF0013202C88C1A8C4314EAC211F9D0DF
:1006D000C01A0A0603D0C01E10BDC01A10BD0A04FD
:1006E00001D0801E10BD0902FCD0401E10BD704715
:1006F0007047704770B5044685690068C10601D52A
:10070000302600E02026C00707D070BDD4E90121C3
:1007100030469047206A401C20626D1EF6D570BDA1
:1007200070B5044685690078C00707D170BDD4E96B
:10073000012120209047206A401C20626D1EF6D5C2
:1007400070BD09684A0501D540B27047C905FCD59E
:1007500000B2704709684A0501D5C0B27047C905A3
:10076000FCD580B2704770B50C460546012A05D00D
:100770002878800600D5EA69002302E0012305E01D
:100780005B1C934202D2E05C0028F9D1A869E6180C
:10079000C01AA861286A184428622846FFF7AAFFF1
:1007A00004E0D5E9012114F8010B9047B442F8D3D5
:1007B0002846FFF7B5FF70BD2DE9F0470D46994675
:1007C0009246044600F124080168880604D5E069D1
:1007D00021F01001216000E00120A84201DD471B4B
:1007E00000E00027A1697A1902EB0900081AA0614C
:1007F0002078C00602D42046FFF77CFF002608E0E0
:10080000D4E901211AF806009047206A401C761CA2
:1008100020624E45F4DB2078C0060AD52046FFF75B
:1008200069FF06E0D4E9012130209047206A401C8E
:100830002062381EA7F10107F4DC07E0D4E90121AA
:1008400018F805009047206A401C2062281EA5F178
:100850000105F3DC2046FFF763FF2078000602D590
:100860000220BDE8F0870120FBE711680268006AFA
:10087000530501D508700AE0D30501D5088006E0CC
:10088000130603D5C217C1E9000200E00860012089
:10089000704770472DE9FF4F0C461E464FF0FF375B
:1008A0008BB0D2E90001DDF860800A908A46C1F37E
:1008B0000A5505B93D46002108464FF00000BAF13F
:1008C000000F00F4400005DA00EB80004FF4400117
:1008D00001EA50004FEA9059B9F1010F00DDB94625
:1008E0000A9850EA4A000ED044F61050A5F2FF359F
:1008F00045432F14B8F1000F1ED07542291E1EDD8E
:10090000C9F100021CE0B8F1010F4FF0000001D066
:10091000302103E0F24305E02154401CB042FBDBF0
:1009200030460022002121540B99C1F80880C1E90A
:1009300000200FB0BDE8F08FBD1B6D1CDEE74A46FE
:1009400000DA694206A800F0D7FC06AB93E807007E
:1009500003AB83E8070050460A9900F0DAFD8DE802
:100960000700A0F500501F3800900398002D09DD06
:1009700042F21F014A46084403A90390684601F069
:1009800039F808E0A0F500504A461F3803A9039043
:10099000684601F043F88DE807000004000C03D01E
:1009A0004FF0FF30410800E01046B8F1000F03D0CF
:1009B0000022009215461EE0751E05D400F06CFA68
:1009C000303262556D1EF9D5B3460122084302D07C
:1009D00000227F1C04E02078302801D100227F1EF5
:1009E000002A099786D01DE0112D07DA00F054FA8D
:1009F000303262556D1C50EA0102F5D1084302D035
:100A00000098C8B10EE00021681E05E0235C625C1E
:100A100063542254401E491C8142F7DBAB46A81B9D
:100A2000401E0990002004F80B000B98099AC0F8AA
:100A30000880C0E9002B7CE711264FF0000859E739
:100A40002DE9F04F88460446D21D22F0070191B0EF
:100A5000D1E90001CDE90A0102F008FF02460B9836
:100A6000C00F01D02D2007E02068810701D52B2081
:100A700002E0202101EAC000032A099001D0072AE0
:100A800005DB03464146204600F0CAFB0BE1207817
:100A9000800601D5E06900E00620B8F1650F8146C7
:100AA00006D0B8F1660F18D0B8F1670F70D131E0F9
:100AB0000020B9F1110F009001DB112301E009F1D1
:100AC00001030AAA01A90CA8FFF7E4FEDDE90C70F6
:100AD000002609F10105834647E001204B460090BE
:100AE0004FF000470AAA01A90CA8FFF7D3FEDDE9E1
:100AF0000DB00C995D46002610B909F101000D18E2
:100B0000B9EB050003D4C0F1FF3609F10105A5EBEF
:100B100009002BE0B9F1010F01DA4FF001090020C3
:100B2000B9F1110F0090484601DD112300E00346A2
:100B30000AAA01A90CA8FFF7ADFEDDE90C704D462D
:100B400000268346207800070AD4AB4500DA5D46CC
:100B500001A8012D04DD411911F8011C302907D02D
:100B60004F4502DA17F1040F04DA012082460FE044
:100B70006D1EEEE7002F02DCED1B3E4403E0781C07
:100B8000A84200DD7D1CB81B00F1010A4FF00047B0
:100B90002078000703D4AA4501DB4FF0FF3A00217B
:100BA000B7F1004F0DF143088DF8431024D0022017
:100BB0002B23002F01DA7F422D230A21021EA0F1F0
:100BC000010000DC5FB197FBF1FC97FBF1F201FB48
:100BD0001C7C17460CF1300C08F801CDEEE7A8F1AB
:100BE000010003702188090501D5452100E0652138
:100BF000A0F1010800F8011C09980FA9A1EB080752
:100C0000FF1D00B10120411901EBEA70A1693844D0
:100C1000081A401EA0612078C00602D42046FFF7C3
:100C200069FD099828B1D4E901219047206A401C48
:100C300020622078C00622D52046FFF75BFD1EE02B
:100C4000002E04DBB34502DD01A8805D00E030200A
:100C5000D4E901219047206A401C2062761CAAF149
:100C600001005FEA000A0AD100F012F9C0680168C9
:100C7000405CD4E901219047206A401C2062281E74
:100C8000A5F10105DCDC07E0D4E9012118F8010B2E
:100C90009047206A401C2062381EA7F10107F3DC50
:100CA0002046FFF73DFD032011B043E601694A1CD1
:100CB00002610878704700B58FB0CDE9013100219D
:100CC000059105497944CDE9031011466846FFF7BF
:100CD0002BFC0FB000BD0000E5FFFFFF0A6802F823
:100CE000010B0A60704700002DE9FF5F15468A4638
:100CF0000446DFF8AC80F8440027D8E900103E46EF
:100D0000CDE9001010E03AF816106A4602A800F08B
:100D100061FB411C07D02178890603D5E2693918A7
:100D200091420DD80744761C2078800602D5E069F0
:100D3000B84205DDAE42E6DB3AF816000028E2D103
:100D4000A069C01BA0612046FFF7D4FCD8E90010C1
:100D5000CDE90010002017E03AF818106A4602A802
:100D600000F038FBB0F1FF3F81460BD000250DF1BC
:100D7000080B05E0D4E901211BF8050090476D1C24
:100D80004D45F7D308F10100B0428046E4DB206A0C
:100D9000384420622046FFF7C3FCBDE8FF9F0000F7
:100DA000C23300002DE9F0418046D21D22F0070237
:100DB0000025D2E90002F52915A614D0011E72F112
:100DC000000106DA0023D0EB030063EB020211A658
:100DD00008E0D8F800108B0701D50FA602E04907FC
:100DE00001D50EA601251146002408F1240704E0D0
:100DF00000F052F830323A55641C50EA0102F7D143
:100E00002B46324621464046BDE8F041FFF7D4BCB0
:100E1000000000002D0000002B000000200000005A
:100E200030B4002100F1240408E002F00705D208E4
:100E3000303542EA4372DB086554491C52EA030527
:100E4000F3D10468002310A2250708D504F020047C
:100E50000C4304D0C46901230CA2641EC46130BCDD
:100E6000FFF7AABC10B5044621461068FFF772FCD4
:100E700002462046BDE810400023D1E7D21D22F0F3
:100E80000701D1E90023CBE700000000300000009B
:100E9000004870473003002030B5B0F10A024FEA35
:100EA000900E71F100034EEA817EB0EB0E0061EB13
:100EB00091014FEA101E4EEA017E10EB0E0041EB4D
:100EC00011114FEA102E4EEA016E10EB0E0041EBAD
:100ED00011214FEA104E4EEA014E10EB0E0041EB8D
:100EE0001141401841F100014FEAD00040EA417041
:100EF0004FEAD10110EB80054FEA810444EA907477
:100F000044EB01046D1944EB0404521BA3414FF060
:100F1000000348BF0A3200D530BD401C41F100013A
:100F200030BD00002DE9F04F04460D46D21D22F0E1
:100F3000070089B0D0E9009248461746394602F0CA
:100F400095FC0246F80F01D02D2307E020688107A9
:100F500001D52B2302E0202101EAC0038DF82030C7
:100F60000BB1012000E00020032A824601D0072AAD
:100F700004DB2946204600F053F93DE12078800645
:100F800001D40D2500E0E569C7F30A560D2D49DAB5
:100F900000214FEA175B08464FF00000002F00F4D5
:100FA000400007DA00EB80004FF4400100EBD07006
:100FB00001EA60008115012901DD4FF0FF310022B7
:100FC0004FEA850CBCF1180F06D31346ACF118009C
:100FD0004FF08052C24003E04FF4801323FA0CF329
:100FE0000CF10C0CBCF1200F04D3ACF1200C09FA6D
:100FF0000CF001E007FA0CF000294FF0004801DD89
:1010000018B90FE00ED140450CD319EB02095F412E
:1010100021B9404502D19F4329EA0209BBEB175F82
:1010200000D0761C2088000502D57B48784402E079
:1010300079487844193808AA302302F80A30037C2A
:101040000AF10101002E0AF1020A53546A4602DC39
:101050004FF0300101E04FF031014FF001088DF801
:10106000001002D0A6F2FF3603E059EA470100D093
:101070006A4E002D02DC2178090704D54FF00208E2
:101080002E218DF80110C44600210BE0C7F3034365
:101090003F01C35C491C6D1E02F80830052908F1A8
:1010A000010801DA002DF1DC00210CE000EB1973DE
:1010B000491C1B786D1E082902F808304FEA0919EF
:1010C00008F1010801DA002DF0DC2178890602D54B
:1010D00014E0A8F10108E04505DD02EB080111F874
:1010E000011C3029F5D0B8F1000F07DD02EB080133
:1010F00011F8011C2E2901D1A8F10108002D05DDF0
:101100003E2102F808106D1E08F10108407C002EF7
:1011100002F8080008F1010804DA2D20764202F8EE
:10112000080002E02B2002F808000A214FF47A7030
:10113000864208F101080BDB96FBF0F3303302F82E
:10114000083096FBF0F308F1010800FB136601E09C
:10115000642E0CDB642096FBF0F3303302F8083089
:1011600096FBF0F308F1010800FB136601E00A2E7C
:1011700006DB96FBF1F0303002F8080008F10108B8
:1011800096FBF1F001FB1060303002F80800A16915
:1011900008F1010808EB050202EB0A00081AA06139
:1011A0002078C00602D42046FFF7A4FA216A08AED0
:1011B00001EB0A00206204E0D4E9012116F8010BDA
:1011C0009047BAF1010AF7D22078C00602D520462E
:1011D000FFF790FA6E4609E016F8010B3E280FD093
:1011E000D4E901219047206A401C2062B8F101082F
:1011F000F2D22046FFF794FA09B00320BDE8F08F41
:10120000206A2844206203E0D4E90121302090477D
:101210006D1EEBD3F8E70000A730000002FCFFFFD3
:101220002DE9F0411F46044603260168072A01F410
:10123000006004DB08B116A505E016A503E008B1BF
:1012400015A500E015A521F010002060A069C01EC2
:10125000A0610FB1401EA0612046FFF74BFA4FB1CD
:10126000D4E9012138469047206A401C2062C01C06
:10127000206206E0206AFAE7D4E9012115F8010BA3
:101280009047761EF8D22046FFF74AFABDE8F08173
:101290004E414E006E616E00494E4600696E66001A
:1012A00010B5436913B1AFF3008001E0FFF75BFABB
:1012B000012010BD127800F124010A7000224A704A
:1012C0000122EDE711684FF0FF32E9E710B54369FD
:1012D00013B1AFF3008001E0FFF706FD012010BD60
:1012E000128800F1240182840022C2840122EDE7E9
:1012F00011684FF0FF32E9E72DE9F04781461646C5
:101300008AB0334878440DC88DE80D0030487844E1
:10131000801C03AC0DC884E80D0041F69B300844E6
:10132000372190FBF1F290FBF1F5A5F1800501FB6F
:1013300012041B3C02D56442012000E00020DFF8CB
:1013400090A080460027FA44AAF1BE0A0DE0E0070B
:1013500009D03246684607EB47010AEB810100F0ED
:101360005DFB8DE8070064107F1C002CEFD1184F47
:101370007F44AC3F18E0E80714D007EB04100DF1F0
:10138000180A90E80E008AE80E00C068F04201D109
:1013900098190890324606A903A800F03FFB03AB5A
:1013A00083E807006D10641C002DE4D132466946C5
:1013B000B8F1000F03A802D000F01CFB01E000F020
:1013C0002DFBC9E90001C9F808200AB0BDE8F08783
:1013D000602E000070B516460C46054600F044F835
:1013E000036893F80101012806D0FF2C0FD8185D7F
:1013F00068B101202C7070BDD3F807013246214638
:1014000003F2071303442846BDE8704018474FF025
:10141000FF3070BD00487047100300207546FFF78D
:10142000F9FFAE4605006946534620F007008546A1
:1014300018B020B5FEF7B8FFBDE820404FF0000619
:101440004FF000074FF000084FF0000B21F00701AC
:10145000AC46ACE8C009ACE8C009ACE8C009ACE8EF
:10146000C0098D467047000010B5FFF711FD001D43
:1014700010BD00BFD12B00000446AFF30080204612
:10148000FEF721FF4FF0013C50F8042B51F8043BCC
:101490009A4221D1A2EB0C03934313EACC1317D148
:1014A00050F8042B51F8043B9A4215D1A2EB0C03DF
:1014B000934313EACC130BD150F8042B51F8043B9F
:1014C0009A4209D1A2EB0C03934313EACC13DBD06D
:1014D0004FF00000704700BFD01A01BAB1FA81F195
:1014E00001F0180122FA01F0CB40C1F12001DBB27A
:1014F000C0B2C01A2CFA01F3D11A914311EAC311F8
:10150000E6D1704701491820ABBEFEE72600020075
:1015100070475FEA400C08BF91F0000F4FEA8C2340
:101520004FEAC12243EA51514FEA1C5018BF00F55F
:10153000F0404FEA300018BF41F000415FEA6C5CB8
:1015400000F02980BCF1FF3F08BF40F080407047A9
:10155000130C06BF12044FF0100C4FF0000C130ECA
:1015600004BF12020CF1080C130F04BF12010CF19E
:10157000040C930F04BF92000CF1020CD30F04BFB4
:1015800052000CF1010C11464FF00002A0F11F00B7
:10159000A0EB0C00704711F0004F08BF704731F00E
:1015A00000413FF4D5AF0B0C06BF09044FF0100CFF
:1015B0004FF0000C0B0E04BF09020CF1080C0B0FCE
:1015C00004BF09010CF1040C8B0F04BF89000CF15E
:1015D000020CCB0F04BF49000CF1010CCCF120032D
:1015E000A0EB0C0022FA03F302FA0CF241EA030129
:1015F00000F10100704720F07F4C80EA030023F0E7
:101600007F47ACEB070303F57C5300F0004003F188
:10161000FF032DE980494FEA154B09B44FEA144303
:1016200025EA0B4E24EA03480FF2042606EB1327A3
:1016300049083E785FEA320203FB0667C7F50007F8
:1016400007FB06F64FEA54374FEAD64606F1020684
:1016500007FB066CCCF1005C4FEA1C472CEA074CF8
:1016600007FB06F40CFB06F504EB15464FEA96164D
:1016700034BF00204FF000404FEAD13706FB07FC93
:101680004FEA1C4C0CFB0BF7D21B03FB0CF761EB76
:1016900007010CFB0EF7B0EB074072EB17420CFB97
:1016A00008F734BFA2EB0742B2EB074261EB1741E8
:1016B0004FEA0C444FEA910706FB07FC4FEA1C4C2B
:1016C0000CFB0BF7B0EBC74072EB573203FB0CF788
:1016D00034BFA2EBC742B2EBC74261EB57310CFB00
:1016E0000EF7B0EBC70072EB57720CFB08F734BF74
:1016F000A2EBC702B2EBC70261EB5771039F4FEA3F
:10170000816141EA921104EBCC044FEAD1374FEAF0
:10171000826206FB07FC42EA90124FEA80604FEAC1
:101720001C4C0CFB0BF7D21B03FB0CF761EB070106
:101730000CFB0EF7B0EB074072EB17420CFB08F7FF
:1017400034BFA2EB0742B2EB074261EB17414FEA0D
:101750008C554FEA910704EB9C2406FB07FC4FEAEB
:101760001C4C0CFB0BF7B0EBC74072EB573203FB82
:101770000CF734BFA2EBC742B2EBC74261EB573163
:101780000CFB0EF7B0EBC70072EB57720CFB08F7BF
:1017900034BFA2EBC702B2EBC70261EB577115EB86
:1017A0004C254FEA816141EA92114FEA82624FEA89
:1017B000D13742EA901206FB07FC44F100044FEADD
:1017C00080604FEA1C4C0CFB0BF7D21B03FB0CF7A1
:1017D00061EB07010CFB0EF7B0EB074072EB174211
:1017E0000CFB08F734BFA2EB0742B2EB074261EBF8
:1017F000174115EB1C154FEA813141EA92414FEA3E
:10180000823242EA90424FEA80304FEA0C7644F14D
:10181000000448EA03434EEA0B484FF0000EB2EBD7
:10182000080C71EB030724BF624639464EEB0E0EDF
:101830004FF0000B0018524149414BEB0B0BB2EB40
:10184000080C71EB03077BF1000B24BF624639469D
:101850004EEB0E0E4FF0000B0018524149414BEB7E
:101860000B0BB2EB080C71EB03077BF1000B24BFF1
:10187000624639464EEB0E0E51EA020718BF46F09B
:10188000010616EB0E7655F1000254F1000103D566
:10189000BDE88901BDE80088BDE88901BDE80048D0
:1018A000B619524141EB0101A3F101037047808059
:1018B0007F7E7D7C7B7A79787776767574737271AA
:1018C00071706F6E6E6D6C6C6B6A6A696868676662
:1018D00066656464636362616160605F5F5E5E5DF4
:1018E0005D5C5C5B5B5A5A59595858575756565568
:1018F00055555454535352525251515050504F4FCA
:101900004F4E4E4D4D4D4C4C4C4B4B4B4A4A4A4919
:10191000494948484847474747464646454545445C
:101920004444444343434342424242414141002BE9
:1019300026D4770021D01CB54FEA370703B44FF007
:1019400010004FF010014FF000000FBCBDE8104038
:101950000BF1010BBBF1010F08BF5FEA170722BFB4
:1019600012F1010211F101014FF0004143F10003B6
:1019700000F0004043EA00007047F9D35708DAE767
:1019800046EA064613F1400F4FEA16461FDD13F1F3
:10199000200FDFBF16430A46002120335B42C8D028
:1019A000C3F1200746EA064602FA07F74FEA164651
:1019B00046EA0706C3F1200722FA03F201FA07F705
:1019C00021FA03F14FF0000342EA0702B1E746EAC9
:1019D000020646EA06464FEA164646EA0106BCBF3C
:1019E00046EA0646360C4FF000034FF000024FF077
:1019F00000019EE72DE9C048934630B491E83800D5
:101A000007C831EA400C48BF34EA430C03D5FFF75E
:101A1000F2FDFFF78CFFF0BCBDE800882DE9C0485F
:101A2000934630B491E8380007C810F0804F08BFE3
:101A300013F0804F03D100F005F8FFF778FFF0BCFA
:101A4000BDE8008820F07F4780EA030023F07F4C48
:101A500007EB0C03A3F57C5300F00040A3F1FE0359
:101A600092F0000F00F0B38095F0000F00F0778047
:101A70002DE901494FEA11404FEA144621EA004896
:101A800000FB06FC24EA064708FB06F607FB08F8FD
:101A900000FB07F718EB06484CEB164C4FEA124BCD
:101AA00018EB07484FEA15464CEB174022EA0B4E5D
:101AB0000BFB06FC25EA06470EFB06F607FB0EFEAF
:101AC0000BFB07F71EEB064E4CEB164C4FF00006D7
:101AD0001EEB074E4CEB174B18EB0B0840F10000C8
:101AE00018EB0E0B58EB000840F100008F1A4FF076
:101AF00000013CBFC943661B14BFB5EB040C0021B9
:101B00003CBFC943F61B4FEA17444EEA8E0E27EA44
:101B100004454FEA1C4704FB07622CEA074C05FB0F
:101B200007F70CFB05F604FB0CFC16EB074642EB33
:101B3000174216EB0C4642EB1C421BEB060658EB19
:101B40000202414146EA9E0601D5BDE80189B61967
:101B5000524141EB0101A3F10103BDE801894FEAC4
:101B600014454FEA114724EA054621EA074C05FBD4
:101B700007F406FB07F70CFB06F105FB0CFC11EB69
:101B8000074144EB17444FEA124711EB0C4144EB79
:101B90001C4422EA074C05FB07F206FB07F70CFB87
:101BA00006F605FB0CFC16EB074642EB174216EB5C
:101BB0000C4642EB1C456A1854F1000148BF7047BF
:101BC000B619524141EB0101A3F10103704795F0B1
:101BD000000F37D04FEA11424FEA144721EA02467C
:101BE00024EA074C02FB07F106FB07F70CFB06F49F
:101BF00002FB0CFC14EB074441EB17414FEA15477D
:101C000014EB0C4441EB1C4125EA074C02FB07F5A1
:101C100006FB07F70CFB06F602FB0CFC16EB07466F
:101C200045EB174516EB0C4645EB1C42121951F1DA
:101C3000000148BF7047B619524141EB0101A3F1C1
:101C4000010370474FEA14454FEA114724EA05465D
:101C500021EA074C05FB07F106FB07F70CFB06F230
:101C60004FF0000605FB0CFC12EB074241EB17415D
:101C700012EB0C4251EB1C4148BF7047921841EBEC
:101C80000101A3F10103704700BFFEE72DE9F04118
:101C900005462878401E44B2032C4BDC002C49DB5F
:101CA00004EB4400264931F82070287BE97A40EAA9
:101CB000012004EB4401224A22F82100A97B687B21
:101CC00041EA002000B204EB440102EB81014880AC
:101CD000297CE87B41EA002000B204EB440102EBDE
:101CE00081018880687C04EB440102EB81018871EA
:101CF00004EB4400114631F82000C01B06B2B6F5D3
:101D0000805F03DBA6F5005006B205E016F5805FA4
:101D100002DA06F5005006B204EB4400084901EB74
:101D200080008068304404EB4401054A02EB8101E5
:101D3000886003E003A10D4801F022F9BDE8F081BD
:101D40007400002045534320726563697665206501
:101D500072722C20706C6561736520636F6E6E65A6
:101D6000637420786A630D0A0000000000100140CF
:101D70002DE9F04F87B004460D4616461F46002059
:101D80000690A046A946B246BB464FF400700190AB
:101D900008208DF80E0000208DF80C008DF80D0045
:101DA0004FEA18208DF80F008DF810804FEA1921A6
:101DB0008DF811108DF812904FEA1A218DF813103A
:101DC0008DF814A04FEA1B218DF815108DF816B070
:101DD00001A9064800F043FB06900698042803D1A9
:101DE000002007B0BDE8F08F0120FAE70064004052
:101DF00000B58BB00121480600F094FF03200121BB
:101E000000230222CDE90010C102364800F0C4FBD5
:101E100009220B21334800F017FD09220C2131481B
:101E200000F012FD00208DF826008DF827008DF8B7
:101E300028008DF829008DF82A0001208DF82B004C
:101E400000208DF822008DF8230008208DF8240052
:101E500003208DF82500ADF8200008A9224800F0E5
:101E6000FCF900208DF81A008DF81B0001208DF878
:101E70001C000020ADF81000ADF81200ADF8140001
:101E8000ADF81600ADF8180001208DF81D0004A86B
:101E900000F0C6F814208DF80C0001208DF80D001C
:101EA00000208DF80E0001208DF80F0003A800F02F
:101EB000F7FD13208DF80C0001208DF80D008DF832
:101EC0000E008DF80F0003A800F0EAFD01220221A8
:101ED000054800F0B9F901221146034800F0B4F9B1
:101EE0000BB000BD000002400064004000B585B0AA
:101EF00002210B4800F018F978B10421084800F0DD
:101F00003BF80421064800F01BF86A46002104480B
:101F100000F02DFA6846FFF7B9FE05B000BD0000DD
:101F20000064004010B50121044800F0FDF818B12C
:101F30000121024800F020F810BD000000640040BC
:101F400000220C4B994202D10023836111E0C1F3BE
:101F5000130201F000730BB1C2600AE001F080636C
:101F60000BB1026105E001F000630BB1826000E09B
:101F7000426070477000F030B1F5007F3AD00FDC5E
:101F8000202928D006DC01291CD004291DD00829CD
:101F900040D11DE0402921D0B1F5807F3AD126E023
:101FA000B1F5004F31D006DCB1F5806F25D0B1F529
:101FB000006F2FD124E0B1F5803F12D0B1F5003F82
:101FC00028D111E0154A826025E00822C26022E093
:101FD0001022C2601FE0082202611CE01022026190
:101FE00019E00822426016E01022426013E0042249
:101FF000426010E0042242600DE0042242600AE0E8
:10200000002282610422426005E0002282610422F3
:10201000426000E000BF00BF704700000101010006
:1020200010B50021837A012202FA03F13D4A1268B9
:1020300042F001023B4B1A603A4A1C3212688A4352
:10204000384B1C331A60027BCAB9364A0C3212680C
:102050008A43344B0C331A604288C38842EA0343F4
:10206000304A4032847A42F834300288838842EA27
:1020700003432C4A4032847A02EBC4025360027B51
:10208000012A19D1274A0C3212680A43254B0C3316
:102090001A604288038842EA0343224A4032847A23
:1020A00042F83430C288838842EA03431D4A4032F2
:1020B000847A02EBC4025360C27A3AB9194A121DFB
:1020C00012688A43174B1B1D1A6006E0154A121D41
:1020D00012680A43134B1B1D1A60028932B9114A58
:1020E000143212688A430F4B14331A600289012A92
:1020F00006D10C4A143212680A430A4B14331A6090
:10210000427B012A06D1074A1C3212680A43054B5A
:102110001C331A60034A126822F00102014B1A6054
:1021200010BD00000066004070B504460D46002654
:1021300060692840002871D0B5F5807F5CD010DC44
:10214000082D35D006DC012D20D0022D24D0042D01
:1021500072D127E0102D31D0202D35D0402D6BD1FC
:1021600038E0B5F5004F60D009DCB5F5007F49D007
:10217000B5F5806F4CD0B5F5006F5DD14FE0B5F58A
:10218000803F2DD0B5F5003F56D12FE0A0682D49F6
:1021900000F0F8F9064651E0E068032100F0F2F99A
:1021A00006464BE0E068082100F0ECF9064645E001
:1021B000E068102100F0E6F906463FE020690321BF
:1021C00000F0E0F9064639E02069082100F0DAF96C
:1021D000064633E02069102100F0D4F906462DE0D0
:1021E0006068082100F0CEF9064627E060681021FB
:1021F00000F0C8F9064621E0A069012100F0C2F90B
:1022000006461BE0A069022100F0BCF9064615E075
:10221000A069042100F0B6F906460FE00FE0A069BE
:10222000702100F0AFF9064608E06068042100F074
:10223000A9F9064602E0FFE7002600BF00E00026FD
:10224000304670BD010101001AB143690B4343617F
:1022500002E043698B434361704730B5024600207A
:102260000023146824F002041460146844F001048C
:10227000146000E05B1C546804F001041CB94FF6C4
:10228000FF74A342F6D1546804F001040CB9002095
:102290006CE08C79012C04D1146844F08004146043
:1022A00003E0146824F080041460CC79012C04D17C
:1022B000146844F04004146003E0146824F04004FF
:1022C00014600C7A012C04D1146844F020041460CA
:1022D00003E0146824F0200414604C7A012C04D12B
:1022E000146844F01004146003E0146824F010042F
:1022F00014608C7A012C04D1146844F00804146032
:1023000003E0146824F008041460CC7A012C04D192
:10231000146844F00404146003E0146824F0040416
:1023200014608C78A407CD7844EA05640D7944EAFA
:1023300005444D7944EA05540D886D1E2C43D46143
:10234000146824F001041460002300E05B1C54684E
:1023500004F001041CB14FF6FF74A342F6D1546897
:1023600004F001040CB1002000E0012030BD10B5E4
:1023700000F5D87303EB01131B6803F00403137219
:10238000137A53B900F5D87303EB01131B6840F2BD
:10239000FF7404EA5353136009E000F5D87303EBAC
:1023A00001131B686FF0604404EAD303536000F527
:1023B000D87303EB01131B6803F00203537200F59B
:1023C000D87303EB01135B6803F00F03937200F5FE
:1023D000D87303EB01135B681B0AD37400F5D87341
:1023E00003EB01139B68D37200F5D87303EB011361
:1023F0009B681C0A147300F5D87303EB01139B68E8
:102400001C0C547300F5D87303EB01139B681B0E6F
:10241000937300F5D87303EB0113DB68D37300F5F6
:10242000D87303EB0113DB681C0A147400F5D8732E
:1024300003EB0113DB681C0C547400F5D87303EB39
:102440000113DB681B0E937421B9C36843F02003AA
:10245000C36003E0036943F02003036110BD10B5BE
:1024600002460020936803F08063B3F1806F00D1CF
:1024700010E0936803F00063B3F1006F01D1012015
:1024800008E0936803F08053B3F1805F01D102202C
:1024900000E00420042874D002F5C07303EB00139D
:1024A0001B6803F0010402F5C07303EB00131C600A
:1024B0000B7A7BB94B7A0C8843EA445302F5C0741B
:1024C00004EB00142468234302F5C07404EB0014E9
:1024D000236010E00B7A4C6843EAC4034C7A234330
:1024E00002F5C07404EB00142468234302F5C074A1
:1024F00004EB001423608B7A03F00F038B7202F558
:10250000C07303EB00135B6823F00F0402F5C07384
:1025100003EB00135C6002F5C07303EB00135B6810
:102520008C7A234302F5C07404EB001463608B7B48
:102530001C064B7B44EA03440B7B44EA0323CC7A1E
:10254000234302F5C07404EB0014A3608B7C1C06CB
:102550004B7C44EA03440B7C44EA0323CC7B2343B7
:1025600002F5C07404EB0014E36002F5C07303EBE2
:1025700000131B6843F0010402F5C07303EB001362
:102580001C6010BD0246002002EA01030BB10120CD
:1025900000E00020704770472DE9FF4704460E46D3
:1025A00015469846DDE90C9762A103C9CDE9000103
:1025B0004FF0000A614884421DD0614884421AD01D
:1025C0006048844217D06048844214D05F488442F7
:1025D00011D05F4884420ED05E4884420BD05E48E2
:1025E000844208D05D48844205D05D48844202D0D0
:1025F0005C4884423CD15148844207D101210846BD
:1026000000F080FB41208DF8040036E04C48844205
:1026100007D10121022000F075FB42208DF8040053
:102620002BE04848844207D10121042000F06AFBD6
:1026300043208DF8040020E04348844207D1012163
:10264000082000F05FFB44208DF8040015E03F48AF
:10265000844207D10121102000F054FB45208DF861
:1026600004000AE040A1494800F08AFCBDE8FF8769
:1026700047A1464800F084FCF8E76A4648A1434871
:1026800000F07EFC02960CE006F0010020B15246FC
:1026900044A13E4800F074FC0AF1010000F0FF0A7A
:1026A0007610002EF0D12DB1012D03D0022D01D0D6
:1026B000032D02D18DF80C5004E035A1334800F011
:1026C0005FFCD3E7B8F1000F02D0B8F1010F02D1DF
:1026D0008DF80E8004E02EA12C4800F051FCC5E7D7
:1026E000B9F1000F05D0B9F1010F02D0B9F1020F15
:1026F00002D18DF80F9004E025A1244800F040FCA1
:10270000B4E72FB1012F03D0022F01D0032F02D144
:102710008DF80D7004E01EA11C4800F031FCA5E707
:1027200002A9204600F048F820A1184800F028FC33
:1027300000BF9BE74750494F0000000000000240E7
:102740000004024000080240000C02400010024059
:102750000014024000180240001C02400020024009
:1027600000240240002802404750494F5F496E69EB
:10277000745F4552522C20706C6561736520636FE5
:102780006E6E65637420786A630D0A000010014064
:102790004750494F5F496E69745F4552520D0A00B8
:1027A00025732C0050696E25642C0000496E6974F5
:1027B0005F4F6B0D0A000000F0B50A4600210023B0
:1027C000002400BF3DE0012505FA01F3156805EA84
:1027D00003049C4234D105684F000326BE40B54334
:1027E000056015794E00B5400668354305601579DA
:1027F000012D02D01579022D16D185684F000326D0
:10280000BE40B543856055794E00B5408668354376
:102810008560456801268E40B543456045689679D8
:102820008E40B6B235434560C5684F000326BE40B2
:10283000B543C560D5794E00B540C6683543C5601F
:10284000491C1029BFD3F0BDF0B5002300244D076B
:10285000ED0E02FA05F3CE1000F1200555F82650D2
:102860004E07F70E0F26BE40B543CF1000F12006ED
:1028700046F82750CE1000F1200555F8265045EABD
:102880000304CE1000F1200545F82640F0BD418339
:1028900070470183704700BFFEE700001CB50320AE
:1028A000012100230A46CDE900100F210348FFF75C
:1028B00073FE0F210148FFF7ECFF1CBD000802402A
:1028C00070B504460D460F480088A84214D30E4840
:1028D000008838B121460D48FFF7D9FF00200A498A
:1028E000088006E021460948FFF7D3FF012006498A
:1028F000088000200349088002480088401C0149E4
:10290000088070BD0400002006000020000802407E
:1029100000BFFEE738B51D480068401C1B49086031
:102920001B488568B0F902402A462146194800F044
:10293000A7F8194890ED000AB8EEC00A154800F053
:1029400035F8009040F6B831684600F0C5FF1348EE
:10295000007838B100231A46BDF900100846FFF789
:1029600007FA05E000231A4619461846FFF700FA51
:1029700006480068B0F5FA7F07DD002003490860CB
:102980002246294606A001F06BF838BD70000020F1
:10299000740000204C0200206C0000206800002021
:1029A00025642020202025640D0A000031B52DED7E
:1029B000020B0446D4ED240AB0EE600A684600F02B
:1029C00074FF9DED000A204600F0EFF8B4F9800096
:1029D00000EE900AF8EEE00AB0EE600A204600F041
:1029E000A5F8BDEEC00A10EE100A00B23EBD000010
:1029F00010B5044604F1400000F064F9204600F0F0
:102A000061F9B2EE043ADFED152A9FED152AF1EED9
:102A1000041AB2EE001AF6EE000A9FED120A2046E2
:102A200000F091F8B3EE003ADFED0F2A9FED0F2A88
:102A3000DFED0F1A9FED0F1ADFED0F0A9FED0F0A62
:102A400004F1400000F07FF89FED080A84ED240AAD
:102A5000B2EE040A84ED230A10BD000000409C453C
:102A600000F0FF4533333B4100803B450000FA4511
:102A70000000FA44000000000AD7233C0AD7A33C18
:102A8000A0F88010C0F884207047000010B50248FC
:102A9000FFF7AEFF10BD00004C02002070470000A1
:102AA00070B5002100230F22C4781CB3174C246892
:102AB00004F4E064C4F5E064C4F30721C1F1040444
:102AC000E3B20A4144789C40E1B284781440214347
:102AD0000C07210E0E4C05786155047804F01F0593
:102AE0000124AC4005786D11AD0005F1E025C5F875
:102AF000004109E0047804F01F050124AC40054DB5
:102B00000678761145F8264070BD00000CED00E017
:102B100000E400E080E100E002490143024A116064
:102B2000704700000000FA050CED00E000B501461A
:102B3000B0EE402A81ED0C2A084600F039F808462C
:102B400000F06CF800BDB5EEC00AF1EE10FA01DB42
:102B500080ED000AF5EEC00AF1EE10FA01DBC0EDDF
:102B6000010AB5EEC01AF1EE10FA01DBC0ED020A5F
:102B7000F5EEC01AF1EE10FA01DBC0ED031AB5EE66
:102B8000C02AF1EE10FA01DB80ED042AF5EEC02A2E
:102B9000F1EE10FA01DBC0ED052AB5EEC03AF1EE18
:102BA00010FA01DB80ED063A704780ED0D0A7047A0
:102BB000D0ED0D0A90ED0C1A70EEC10AB0EE600A6D
:102BC00080ED070AD0ED0B0A70EE800AC0ED0B0A0B
:102BD000D0ED0B0A90ED051AF4EEC10AF1EE10FAF1
:102BE00004DDD0ED050AC0ED0B0A10E0D0ED0B0AB4
:102BF00090ED051AB1EE411AF4EEC10AF1EE10FAA9
:102C000005D2D0ED050AF1EE600AC0ED0B0AD0ED59
:102C1000080A70EE600AC0ED0A0A70479FED280AA4
:102C2000F0EE400A90ED0D0A90ED031A30EE410AE5
:102C300090ED0C1AB4EEC10AF1EE10FA0CD290ED40
:102C40000D0A90ED031A30EE010A90ED0C1AB4EE65
:102C5000C10AF1EE10FA30DC90ED000A90ED071A8F
:102C600020EE010A90ED011AD0ED0B1A01EE210AB7
:102C700090ED021AD0ED0A1A01EE610AF0EE400A58
:102C800090ED040AB4EEE00AF1EE10FA04D290EDF1
:102C9000040AF0EE400A0EE090ED040AB1EE400A9C
:102CA000B4EEE00AF1EE10FA05DD90ED040AB1EEA3
:102CB000400AF0EE400AC0ED0E0A90ED0E0A704791
:102CC000000000009FED0E0A80ED070A9FED0C0A40
:102CD00080ED090A9FED0A0A80ED080A9FED080AB7
:102CE00080ED0C0A9FED060A80ED0D0A9FED040AA7
:102CF00080ED0E0A9FED020A80ED0F0A704700007A
:102D00000000000029B1064A12680243044B1A6011
:102D100004E0034A12688243014B1A6070470000C6
:102D20003038024029B1064A12680243044B1A6047
:102D300004E0034A12688243014B1A6070470000A6
:102D40004038024029B1064A12680243044B1A6017
:102D500004E0034A12688243014B1A607047000086
:102D600044380240F0B5002100220024022500264C
:102D70000223324F3F6807F00C0121B1042905D02E
:102D8000082937D105E02E4F076036E02D4F076048
:102D900033E02A4F3F1F3F68C7F38056274F3F1F3E
:102DA0003F6807F03F036EB1264FB7FBF3F7DFF83C
:102DB0008CC0ACF1040CDCF800C0CCF3881C07FB21
:102DC0000CF40CE01E4FB7FBF3F7DFF870C0ACF16A
:102DD000040CDCF800C0CCF3881C07FB0CF4174F84
:102DE0003F1F3F68C7F301477F1C7D00B4FBF5F729
:102DF000076002E0124F076000BF00BF0F4F3F683F
:102E000007F0F0010909104F7A5C0768D740476066
:102E10000A4F3F6807F4E051890A0B4F7A5C476814
:102E2000D7408760054F3F6807F46041490B064F64
:102E30007A5C4768D740C760F0BD000008380240A0
:102E40000024F40000127A000F00002010B51024B6
:102E500040F22551444800F0A0FB00287BD040F20E
:102E60002551414800F07EFB3F4800F033FC3F49CC
:102E700008703F48007805286FD2DFE800F00311A2
:102E8000263D4B0039480078AA2805D138480078FB
:102E9000401C3749087002E000203549087060E0A6
:102EA00032480078552808D100203249087030484F
:102EB0000078401C2E49087006E02C480078AA28AB
:102EC00002D000202A4908704BE0284800782A499F
:102ED000284A1278885427480078401C25490870F1
:102EE00008460078102806DB00200870204800788B
:102EF000401C1F49087034E01C480078552805D153
:102F00001B480078401C1A49087002E0002018494C
:102F1000087026E015480078AA2806D1164800F067
:102F200051FC01201549087011E00020114908707A
:102F300009E0002010490F4A127888540D480078A3
:102F4000401C0C4908700B4800781028F1DB002069
:102F50000749087005E005E0FFE700200449087014
:102F600000BF00BF10BD0000004400400B00002067
:102F70000C0000200D00002010010020080000209F
:102F80000FB4F0B52DED028B85B007460EA800906A
:102F9000BAE00D9800785C281CD10D98401C0D906B
:102FA00000786E2809D072280FD10D21384600F024
:102FB000BBF80D98401C0D900BE00A21384600F03C
:102FC000B3F80D98401C0D9003E00D98401C0D9037
:102FD00000BF99E00D98007825287DD10D98401C00
:102FE0000D90007858285CD064281AD0662835D017
:102FF000732876D1009810C800900BE021783846ED
:1030000000F092F800BF0021384600F0C6FA002810
:10301000F9D1641C20780028F0D10D98401C0D9047
:1030200063E0009820C800900A2201A9284600F019
:10303000C9FC01AC0BE02178384600F075F800BF00
:103040000021384600F0A9FA0028F9D1641C207844
:103050000028F0D10D98401C0D9046E00098C01D4E
:1030600020F007000090B0EC028B009053EC182B7E
:103070002BA101A8FDF7BCF901AC0BE02178384683
:1030800000F052F800BF0021384600F086FA002810
:10309000F9D1641C20780028F0D10D98401C0D90C7
:1030A00023E0009840C8009032461EA101A8FDF719
:1030B0009FF901AC0BE02178384600F035F800BFED
:1030C0000021384600F069FA0028F9D1641C207804
:1030D0000028F0D10D9801E008E002E0401C0D90BE
:1030E00003E00D98401C0D9000BF0DE00D9810F806
:1030F000011B0D90384600F017F800BF002138463C
:1031000000F04BFA0028F9D10D98007800287FF4E0
:1031100040AF05B0BDEC028BF0BC5DF814FB0000C5
:10312000256600002558000070B504460D4600BF16
:103130004021204600F031FA0128F9D129462046E5
:1031400000F0CDFA70BD00000CB500200190009099
:103150003448006840F480303249086000BF31488C
:10316000006800F4003000900198401C0190009825
:1031700018B90198B0F5A04FF1D12A48006800F4C1
:10318000003010B10120009001E000200090009874
:10319000012846D123484030006840F08050214942
:1031A000403108602048006840F440401E490860F3
:1031B0001C48083000681B49083108600846006850
:1031C00040F4004008600846006840F4A0500860E1
:1031D0001648091F0860081F006840F08070091F2A
:1031E000086000BF0F48006800F000700028F9D0A8
:1031F00040F205700E4908600A480830006820F067
:1032000003000849083108600846006840F00200E1
:10321000086000BF03480830006800F00C00082870
:10322000F8D10CBD0038024000700040085440073F
:10323000003C0240042808D14FF0E021096941F028
:1032400004014FF0E022116107E04FF0E02109692D
:1032500021F004014FF0E0221161704710B500F039
:10326000A5FD012801D000F087FD10BD10B515485F
:10327000006840F47000134908601348006840F08B
:1032800001001149086000200F49083108600E480C
:1032900000680E4908400C4908600D48091D086087
:1032A000081F006820F48020091F086000200649DC
:1032B0000C310860FFF748FF4FF00060014980398A
:1032C000086010BD88ED00E000380240FFFFF6FE08
:1032D000103000240EB512A207CA8DE80700FFF7D0
:1032E000C5FF4FF4A060FFF717FCA82000F002FB19
:1032F0004FF4E13000F064F84FF4E13000F0BEF834
:10330000FEF776FD6A4609A10B48FFF739FE6A46CB
:1033100006A10A48FFF734FEFFF7C0FA0EBD000011
:10332000686569686569686569000000726561645F
:1033300079202573200D0A00001001400044004050
:1033400010B50121880700F01CF840B10121880761
:1033500000F014F84FF4FA710220FFF7B1FA10BD33
:1033600010B50121044800F00CF818B10121024801
:1033700000F004F810BD000000040040CA430282BF
:10338000704730B50246002000230024158A05EA64
:103390000103958905EA010413B10CB1012000E095
:1033A000002030BD10B540F22551044800F0F5F87A
:1033B00040F22551014800F0D5F810BD0010014041
:1033C00010B588B0044601210846FFF79BFC012197
:1033D0001020FFF7B7FC072209212448FFF734FA31
:1033E00007220A212148FFF72FFA4FF4C060069008
:1033F00002208DF81C0000208DF81E0001208DF8A1
:103400001F0002208DF81D0006A91848FFF7D4F907
:1034100002940020ADF80C00ADF814000C20ADF8BB
:1034200012000020ADF81000ADF80E0002A91048FF
:1034300000F0E6F825208DF8040001208DF8070043
:1034400003208DF8050000208DF8060001A8FFF785
:1034500027FB012240F22551054800F0ABF801217D
:10346000034800F08EF808B010BD000000000240D4
:103470000010014010B5FFF7E9FC10BD10B588B091
:10348000044601210846FFF73DFC01214804FFF7EF
:1034900049FC072202212348FFF7D6F9072203211E
:1034A0002048FFF7D1F90C20069002208DF81C006F
:1034B00000208DF81E0001208DF81F0002208DF8DD
:1034C0001D0006A91748FFF777F902940020ADF810
:1034D0000C00ADF814000C20ADF812000020ADF87F
:1034E0001000ADF80E0002A90F4800F089F8262060
:1034F0008DF8040001208DF8070003208DF80500E9
:1035000001208DF8060001A8FFF7CAFA012240F257
:103510002551054800F04EF80121034800F031F82C
:1035200008B010BD000002400044004010B540F259
:103530002551044800F031F840F22551014800F0CF
:1035400011F810BD0048004010B540F22551044864
:1035500000F023F840F22551014800F003F810BDB7
:103560000014014010B50022002340F66A14A14265
:1035700000D100BF0A1201249440A3B2DC430480AE
:1035800010BD21B1828942F40052828104E0828917
:103590004DF6FF731A408281704702460020B1F554
:1035A000007F00D100BF13880B400BB1012000E069
:1035B00000207047F0B503460024002600250020B7
:1035C00040F66A17B94200D100BF1846C1F3421451
:1035D00001F01F06012707FA06F5012C01D10C3076
:1035E00004E0022C01D1103000E014301AB1076859
:1035F0002F43076002E00768AF430760F0BD00009B
:103600002DE9FF4705460E460024A14600BFA0460F
:10361000B08900B100BF2C8A24F44054F0880443E0
:103620002C82AC8941F20C608443B0883189084314
:10363000718908430443AC81AC8A24F44074B08996
:103640000443AC826846FFF78DFB2048854202D0D8
:103650001F48854202D1DDF80C9001E0DDF80890AA
:10366000A88900F4004040B109EBC90000EB091043
:1036700031684900B0FBF1F707E009EBC90000EB46
:10368000091031688900B0FBF1F76420B7FBF0F056
:1036900004012009642101FB1078A88900F400408E
:1036A00040B1322000EBC800B0FBF1F000F00700A1
:1036B000044308E0322000EB08106421B0FBF1F075
:1036C00000F00F0004432C81BDE8FF87001001408B
:1036D0000014014001468888C0F308007047C1F318
:1036E000080282807047000000203249087018E00C
:1036F00030480078304911F810102E480078012227
:1037000002EB40002C4A105C41EA002001B22B4839
:10371000284A127820F8121026480078401C2549C3
:103720000870244800780728E2DB0020214908704F
:1037300019E02148807B1F490978C1F10702012166
:10374000914008401B490978C1F10701084140B286
:1037500018490978C1F10F01194A505415480078E9
:10376000401C14490870134800780828E1DB002049
:103770001049087019E01048C07B0E490978C1F162
:1037800007020121914008400A490978C1F1070167
:10379000084140B207490978C1F10701084A50546D
:1037A00004480078401C0349087002480078082843
:1037B000E1DB70470E000020100100200201002014
:1037C000F200002000B50346FFF78EFF2348008873
:1037D0002349888021484088C88020488088088004
:1037E0001E48C08848801D48008908811B484089C0
:1037F00048811A48808988811A4800788873194856
:103800004078C8731748807808741648C0784874A0
:1038100014480079887413484079C8741148807935
:1038200008751048C07948750E48007A88750D48AB
:10383000407AC8750B48807A08760A48C07A48767C
:103840000848007B88760748407BC8760548807B1F
:1038500008770448C07B487700BD000002010020C3
:10386000D4000020F200002000BFFEE703B401985E
:103870004100009850EAC12018BF04204A0D18BF2B
:1038800040F0010040F2FF72B2EB515F08BF40F020
:103890000200012808BF052002B0704730380A280E
:1038A00001D20120704700207047D0ED000AF4EEED
:1038B000C00AF1EE10FA01DD80ED000AD0ED000A39
:1038C000B1EE401AF4EEC10AF1EE10FA03D2F1EEB5
:1038D000400AC0ED000A7047B0F900208A4200DDBE
:1038E0000180B0F900204B429A4202DA4A4212B2F9
:1038F0000280704770B504460420FFF79BFC0C481B
:10390000047025464FF47A70454301200949088028
:103910004FF0E020006940F002004FF0E021086124
:10392000681E48610846006940F00100086170BDEA
:10393000000000200200002070B5044600F036FAB6
:10394000012811D00C480088844206DB0A48008810
:1039500094FBF0F5284600F093F90748008894FBA3
:10396000F0F100FB114084B24FF47A7104FB01F0D6
:1039700000F004F870BD00000200002070B503469E
:1039800000224FF0E02675690D4E367803FB06F4F1
:103990004FF0E026B16910E04FF0E026B0698842B0
:1039A0000BD0884202D20E1A324402E02E1A0E4484
:1039B00032440146A24200D300E0EDE700BF70BDF3
:1039C00000000020F0B503460C46154621460022B3
:1039D00000260A2D03D0002008702046F0BD33B920
:1039E000302001F8010B002008700846F6E7002B94
:1039F00003DA2D2001F8010B5B420B480DE093FB2D
:103A0000F0F202B936B102F1300701F8017B02FB96
:103A1000103301260A2790FBF7F00028EFDC002086
:103A200008700846DAE7000040420F000024FFF764
:103A300051FCFFF72BF8C820084908604FF47A7052
:103A4000FFF77AFF09E0B4F57A7F00DD0024641CFB
:103A5000FEF760FF0120FFF76FFFF4E76C00002026
:103A60000FB430B59BB01FA8019002A8019A1E990F
:103A7000FCF7ACFC0020019002A8FCF719FE85B20F
:103A800000240DE000BF40210848FFF786FD012813
:103A9000F9D102A8015D0548FFF721FE601C84B240
:103AA000AC42EFDB1BB030BC5DF814FB00440040BF
:103AB0002DE9F04105460E461C4807681C48006881
:103AC000001D00F05BF850B91948006890F82C1000
:103AD0000120884017490968814316480160681C25
:103AE00038B936B112480168091D134800F074F85E
:103AF0001AE07C190E4800684460BC4207D20C48AA
:103B00000168091D0D48006800F04CF80CE00848F9
:103B10000168091D0A48006800F044F80948006877
:103B2000844201D207480460BDE8F08134000020DF
:103B3000200000203800002038020020280000204B
:103B400024000020500000200A490968096809B9CA
:103B5000012100E0002121B14FF0FF31064A116040
:103B600006E004490968C968C868034A41681160E9
:103B700070470000240000205000002001460A6920
:103B8000D1E901309860D1E901035860506888425A
:103B900001D188685060002008611068401E1060E4
:103BA0001068704710B502460B685C1C0CB91069B0
:103BB00007E002F1080000E04068446824689C4285
:103BC000FAD944684C604C68A160886041600A6121
:103BD0001468641C146010BD42684A6093688B606E
:103BE000936859609160086103685B1C03607047CB
:103BF00000BF502080F31188BFF34F8FBFF36F8F4A
:103C000000BF0E480068401C0C4908600846006868
:103C1000012812D10A480068C0B208B9012000E0AA
:103C2000002050B900BF502080F31188BFF34F8FA0
:103C3000BFF36F8F00BF00BFFEE770475C0000203E
:103C400004ED00E00D48006850B900BF502080F33B
:103C50001188BFF34F8FBFF36F8F00BF00BFFEE728
:103C600006480068401E054908600846006820B9FB
:103C7000002080F3118800BF00BF70475C00002067
:103C800070B504460025D4B11248006808B9012077
:103C900000E0002050B900BF502080F31188BFF32E
:103CA0004F8FBFF36F8F00BF00BFFEE700F016F825
:103CB00000212046FFF7FCFE00F02CF905463DB937
:103CC0004FF0805004490860BFF34F8FBFF36F8FF0
:103CD00070BD00005800002004ED00E002480068BC
:103CE000401C014908607047580000201D480068CA
:103CF00018B101201C49086032E000201A49086010
:103D00001A480068B0FA80F0C0F11F0101EB810091
:103D1000174A52F8200008B1012000E0002050B9F5
:103D200000BF502080F31188BFF34F8FBFF36F8F18
:103D300000BF00BFFEE701EB81020D4B03EB8200E9
:103D400042685268426000F108024368934202D11F
:103D50004268526842604268D268064B1A6000BFEF
:103D60007047000058000020440000203800002068
:103D7000200100202000002010B500BF502080F35B
:103D80001188BFF34F8FBFF36F8F00BF00F01EF895
:103D900018B14FF080500449086000BF002080F344
:103DA000118800BF10BD000004ED00E0054909685E
:103DB00009B9012005E00449096809B9022000E0B9
:103DC000002070473C000020580000202DE9F04101
:103DD0004FF0000844480068002877D14348006845
:103DE000451C4248056015BB41480068006808B999
:103DF000012000E0002050B900BF502080F311885E
:103E0000BFF34F8FBFF36F8F00BF00BFFEE738488F
:103E10000768384800683649086036480760364801
:103E20000068401C34490860FFF78EFE00BF33482D
:103E3000006885423CD300BF2D480068006808B97F
:103E4000012000E0002020B14FF0FF302B49086036
:103E50002DE027480068C068C4686668B54202D291
:103E60002648066023E0201DFFF788FEA06A18B1EF
:103E700004F11800FFF782FE94F82C10012088400E
:103E80001F49096808431E490860E16A01EB810186
:103E90001C4A02EB8100211DFFF79EFE1A49E06AD1
:103EA0000968C96A8842C7D34FF00108C4E700BF58
:103EB00015480068C06A00EB8000124951F82000E4
:103EC000012801D94FF0010805E0FFE70F4800681D
:103ED000401C0E4908600E48006808B14FF0010808
:103EE0004046BDE8F081000058000020340000206A
:103EF000240000202800002048000020500000205E
:103F00003800002020010020200000204000002078
:103F10004400002070B5002400263648006850B9DF
:103F200000BF502080F31188BFF34F8FBFF36F8F16
:103F300000BF00BFFEE7FFF75BFE2E480068401E93
:103F40002C4908600846006800284FD12A480068BC
:103F500000284BD024E02948C068C46804F1180048
:103F6000FFF70CFE201DFFF709FE94F82C1001202E
:103F7000884023490968084321490860E16A01EB48
:103F80008101204A02EB8100211DFFF725FE1E4919
:103F9000E06A0968C96A884202D301201B490860A7
:103FA0001648006808B9012000E000200028D2D09F
:103FB0000CB1FFF7C9FD1648056865B100BFFFF7F2
:103FC00005FF10B10120114908606D1E002DF6D1CA
:103FD00000200F4908600D48006838B101263007FD
:103FE0000C490860BFF34F8FBFF36F8FFFF72AFEB6
:103FF000304670BD58000020300000201002002024
:104000003800002020010020200000204400002073
:104010004000002004ED00E010B500290AD0087827
:10402000002807D005487844FDF72CFA002801D075
:10403000002010BD0248784410BD00007A01000045
:104040007201000010B500290AD00878002807D0B6
:1040500005487844FDF716FA002801D0002010BD6D
:104060000248784410BD00006A01000062010000AF
:104070004FF04070E1EE100A7047FCF7E1BCFCF72E
:1040800051BF303132333435363738394142434409
:1040900045464030580030313233343536373839C0
:1040A00061626364656640307800040000080000C7
:1040B00000000000000200010000100000000000ED
:1040C0000000000030313233343536373839616220
:1040D0006364656678700030313233343536373892
:1040E0003941424344454658500000000240000018
:1040F000000000A00000000005400000000000C813
:10410000000000000C4000000000409C0000000087
:10411000194000000020BCBE000000003440000038
:10412000BFC91B8E00000004B5400000504BCFD02B
:104130006607E2CF010000006C4100003E8251AAF8
:10414000DFEEA73401000000D9420000DCB5A0E298
:104150003A301F97FFFFFFFFB4450000FD25A0C8C0
:10416000E9A3C14FFFFFFFFFFF3F000000000080F9
:1041700000000000FF3F0000000000800000000081
:10418000CC4200080000002074000000C4010008B8
:104190004043000874000020FC080000E001000813
:1041A0001C00000043000000F8FFFFFF0C000000AF
:1041B0000E0000000F0000002E00000010010000A3
:1041C00043000000F8FFFFFF0040404040404040F7
:1041D00040404141414141404040404040404040DA
:1041E000404040404040404040050202020202027E
:1041F00002020202020202020220202020202020CD
:1042000020202002020202020202909090909090E0
:10421000101010101010101010101010101010109E
:104220001010101002020202020288888888888812
:1042300008080808080808080808080808080808FE
:104240000808080802020202400000000000000006
:10425000000000000000000000000000000000005E
:10426000000000000000000000000000000000004E
:10427000000000000000000000000000000000003E
:10428000000000000000000000000000000000002E
:10429000000000000000000000000000000000001E
:1042A000000000000000000000000000000000000E
:1042B00000000000000000000000000000000000FE
:1042C00000000000000000000000000000000000EE
:1042D00000000000000000000000000000000001DD
:1042E000020304010203040607080900000000009D
:1042F00000000000000000000000000000000000BE
:1043000000000000000000000000000000000000AD
:10431000000000000000000000000000000000009D
:104320000000000000000000AAAAAAAA00000000E5
:10433000000000000100000000000000000000007C
:040000050800018965
:00000001FF
